{
  "contractName": "EthSwap",
  "abi": [
    {
      "inputs": [
        {
          "internalType": "contract Token",
          "name": "_token",
          "type": "address"
        }
      ],
      "stateMutability": "nonpayable",
      "type": "constructor"
    },
    {
      "anonymous": false,
      "inputs": [
        {
          "indexed": false,
          "internalType": "address",
          "name": "account",
          "type": "address"
        },
        {
          "indexed": false,
          "internalType": "address",
          "name": "token",
          "type": "address"
        },
        {
          "indexed": false,
          "internalType": "uint256",
          "name": "amount",
          "type": "uint256"
        },
        {
          "indexed": false,
          "internalType": "uint256",
          "name": "rate",
          "type": "uint256"
        }
      ],
      "name": "TokenPurchased",
      "type": "event"
    },
    {
      "inputs": [],
      "name": "name",
      "outputs": [
        {
          "internalType": "string",
          "name": "",
          "type": "string"
        }
      ],
      "stateMutability": "view",
      "type": "function",
      "constant": true
    },
    {
      "inputs": [],
      "name": "rate",
      "outputs": [
        {
          "internalType": "uint256",
          "name": "",
          "type": "uint256"
        }
      ],
      "stateMutability": "view",
      "type": "function",
      "constant": true
    },
    {
      "inputs": [],
      "name": "token",
      "outputs": [
        {
          "internalType": "contract Token",
          "name": "",
          "type": "address"
        }
      ],
      "stateMutability": "view",
      "type": "function",
      "constant": true
    },
    {
      "inputs": [],
      "name": "buyTokens",
      "outputs": [],
      "stateMutability": "payable",
      "type": "function",
      "payable": true
    },
    {
      "inputs": [
        {
          "internalType": "uint256",
          "name": "_amount",
          "type": "uint256"
        }
      ],
      "name": "sellToken",
      "outputs": [],
      "stateMutability": "nonpayable",
      "type": "function"
    }
  ],
  "bytecode": "0x60806040526040518060400160405280601981526020017f4574685377617020496e7374616e63652045786368616e6765000000000000008152506000908051906020019062000051929190620000d2565b5060646002553480156200006457600080fd5b5060405162000cde38038062000cde83398181016040528101906200008a919062000200565b80600160006101000a81548173ffffffffffffffffffffffffffffffffffffffff021916908373ffffffffffffffffffffffffffffffffffffffff1602179055505062000297565b828054620000e09062000261565b90600052602060002090601f01602090048101928262000104576000855562000150565b82601f106200011f57805160ff191683800117855562000150565b8280016001018555821562000150579182015b828111156200014f57825182559160200191906001019062000132565b5b5090506200015f919062000163565b5090565b5b808211156200017e57600081600090555060010162000164565b5090565b600080fd5b600073ffffffffffffffffffffffffffffffffffffffff82169050919050565b6000620001b48262000187565b9050919050565b6000620001c882620001a7565b9050919050565b620001da81620001bb565b8114620001e657600080fd5b50565b600081519050620001fa81620001cf565b92915050565b60006020828403121562000219576200021862000182565b5b60006200022984828501620001e9565b91505092915050565b7f4e487b7100000000000000000000000000000000000000000000000000000000600052602260045260246000fd5b600060028204905060018216806200027a57607f821691505b6020821081141562000291576200029062000232565b5b50919050565b610a3780620002a76000396000f3fe60806040526004361061004a5760003560e01c806306fdde031461004f5780632397e4d71461007a5780632c4e722e146100a3578063d0febe4c146100ce578063fc0c546a146100d8575b600080fd5b34801561005b57600080fd5b50610064610103565b60405161007191906105e1565b60405180910390f35b34801561008657600080fd5b506100a1600480360381019061009c919061063e565b610191565b005b3480156100af57600080fd5b506100b861035d565b6040516100c5919061067a565b60405180910390f35b6100d6610363565b005b3480156100e457600080fd5b506100ed610522565b6040516100fa9190610714565b60405180910390f35b600080546101109061075e565b80601f016020809104026020016040519081016040528092919081815260200182805461013c9061075e565b80156101895780601f1061015e57610100808354040283529160200191610189565b820191906000526020600020905b81548152906001019060200180831161016c57829003601f168201915b505050505081565b80600160009054906101000a900473ffffffffffffffffffffffffffffffffffffffff1673ffffffffffffffffffffffffffffffffffffffff166370a08231336040518263ffffffff1660e01b81526004016101ed91906107b1565b602060405180830381865afa15801561020a573d6000803e3d6000fd5b505050506040513d601f19601f8201168201806040525081019061022e91906107e1565b101561023957600080fd5b600060025482610249919061086c565b9050803073ffffffffffffffffffffffffffffffffffffffff1631101561026f57600080fd5b600160009054906101000a900473ffffffffffffffffffffffffffffffffffffffff1673ffffffffffffffffffffffffffffffffffffffff166323b872dd3330856040518463ffffffff1660e01b81526004016102ce9392919061089d565b6020604051808303816000875af11580156102ed573d6000803e3d6000fd5b505050506040513d601f19601f82011682018060405250810190610311919061090c565b503373ffffffffffffffffffffffffffffffffffffffff166108fc829081150290604051600060405180830381858888f19350505050158015610358573d6000803e3d6000fd5b505050565b60025481565b6000600254346103739190610939565b905080600160009054906101000a900473ffffffffffffffffffffffffffffffffffffffff1673ffffffffffffffffffffffffffffffffffffffff166370a08231306040518263ffffffff1660e01b81526004016103d191906107b1565b602060405180830381865afa1580156103ee573d6000803e3d6000fd5b505050506040513d601f19601f8201168201806040525081019061041291906107e1565b101561041d57600080fd5b600160009054906101000a900473ffffffffffffffffffffffffffffffffffffffff1673ffffffffffffffffffffffffffffffffffffffff1663a9059cbb33836040518363ffffffff1660e01b815260040161047a929190610993565b6020604051808303816000875af1158015610499573d6000803e3d6000fd5b505050506040513d601f19601f820116820180604052508101906104bd919061090c565b507f8daf503382665d950e449b86172be5222275c90f4ddf69c29fdaa8237a562a6d33600160009054906101000a900473ffffffffffffffffffffffffffffffffffffffff168360025460405161051794939291906109bc565b60405180910390a150565b600160009054906101000a900473ffffffffffffffffffffffffffffffffffffffff1681565b600081519050919050565b600082825260208201905092915050565b60005b83811015610582578082015181840152602081019050610567565b83811115610591576000848401525b50505050565b6000601f19601f8301169050919050565b60006105b382610548565b6105bd8185610553565b93506105cd818560208601610564565b6105d681610597565b840191505092915050565b600060208201905081810360008301526105fb81846105a8565b905092915050565b600080fd5b6000819050919050565b61061b81610608565b811461062657600080fd5b50565b60008135905061063881610612565b92915050565b60006020828403121561065457610653610603565b5b600061066284828501610629565b91505092915050565b61067481610608565b82525050565b600060208201905061068f600083018461066b565b92915050565b600073ffffffffffffffffffffffffffffffffffffffff82169050919050565b6000819050919050565b60006106da6106d56106d084610695565b6106b5565b610695565b9050919050565b60006106ec826106bf565b9050919050565b60006106fe826106e1565b9050919050565b61070e816106f3565b82525050565b60006020820190506107296000830184610705565b92915050565b7f4e487b7100000000000000000000000000000000000000000000000000000000600052602260045260246000fd5b6000600282049050600182168061077657607f821691505b6020821081141561078a5761078961072f565b5b50919050565b600061079b82610695565b9050919050565b6107ab81610790565b82525050565b60006020820190506107c660008301846107a2565b92915050565b6000815190506107db81610612565b92915050565b6000602082840312156107f7576107f6610603565b5b6000610805848285016107cc565b91505092915050565b7f4e487b7100000000000000000000000000000000000000000000000000000000600052601260045260246000fd5b7f4e487b7100000000000000000000000000000000000000000000000000000000600052601160045260246000fd5b600061087782610608565b915061088283610608565b9250826108925761089161080e565b5b828204905092915050565b60006060820190506108b260008301866107a2565b6108bf60208301856107a2565b6108cc604083018461066b565b949350505050565b60008115159050919050565b6108e9816108d4565b81146108f457600080fd5b50565b600081519050610906816108e0565b92915050565b60006020828403121561092257610921610603565b5b6000610930848285016108f7565b91505092915050565b600061094482610608565b915061094f83610608565b9250817fffffffffffffffffffffffffffffffffffffffffffffffffffffffffffffffff04831182151516156109885761098761083d565b5b828202905092915050565b60006040820190506109a860008301856107a2565b6109b5602083018461066b565b9392505050565b60006080820190506109d160008301876107a2565b6109de60208301866107a2565b6109eb604083018561066b565b6109f8606083018461066b565b9594505050505056fea2646970667358221220ab66b9bea5a72f459ffc11d3a75b1d846de84490938b74a7c47d7f9911a61df364736f6c634300080b0033",
  "immutableReferences": {},
  "source": " // SPDX license identifier\n pragma solidity >=0.4.21;\n\nimport \"./Token.sol\";\n\n contract EthSwap{\n    string public name = \"EthSwap Instance Exchange\";\n    Token public token;\n    uint public rate = 100;\n\n    event TokenPurchased(\n        address account,\n        address token,\n        uint amount,\n        uint rate\n    );\n\n    // Declare constructor to pass the token contract address when deployed\n    constructor(Token _token) public{\n         token = _token;\n    }\n\n    // Buy token function\n    function buyTokens() public payable{\n         // Calculate number of tokens to buy\n        uint tokenAmount = msg.value * rate;\n\n        // Check if eth swap has enough token for process this transfer\n        require(token.balanceOf(address(this)) >= tokenAmount);       \n\n        // send tokens to user\n        token.transfer(msg.sender, tokenAmount);\n\n        // Emit\n        emit TokenPurchased(msg.sender, address(token), tokenAmount, rate);\n    }\n\n    function sellToken(uint _amount) public{\n        \n        // User can't sell more than they have\n        require(token.balanceOf(msg.sender) >= _amount);\n\n        uint etherAmount = _amount / rate;\n\n        // require that ethSwap has enough token\n        require(address(this).balance >= etherAmount);\n\n        \n        // Perforom sale to redeem eth\n        token.transferFrom(msg.sender, address(this), _amount);\n\n        payable(msg.sender).transfer(etherAmount);\n    }\n }  ",
  "sourcePath": "/Users/mac/Documents/LEARNING/DAPP etherum network/eth_swap/src/contracts/EthSwap.sol",
  "compiler": {
    "name": "solc",
    "version": "0.8.11+commit.d7f03943.Emscripten.clang"
  },
  "schemaVersion": "3.4.3",
  "updatedAt": "2022-03-03T13:02:50.726Z",
  "networkType": "ethereum",
  "devdoc": {
    "kind": "dev",
    "methods": {},
    "version": 1
  },
  "userdoc": {
    "kind": "user",
    "methods": {},
    "version": 1
  }
}