{
  "contractName": "EthSwap",
  "abi": [
    {
      "inputs": [
        {
          "internalType": "contract Token",
          "name": "_token",
          "type": "address"
        }
      ],
      "stateMutability": "nonpayable",
      "type": "constructor"
    },
    {
      "anonymous": false,
      "inputs": [
        {
          "indexed": false,
          "internalType": "address",
          "name": "account",
          "type": "address"
        },
        {
          "indexed": false,
          "internalType": "address",
          "name": "token",
          "type": "address"
        },
        {
          "indexed": false,
          "internalType": "uint256",
          "name": "amount",
          "type": "uint256"
        },
        {
          "indexed": false,
          "internalType": "uint256",
          "name": "rate",
          "type": "uint256"
        }
      ],
      "name": "TokenPurchased",
      "type": "event"
    },
    {
      "inputs": [],
      "name": "name",
      "outputs": [
        {
          "internalType": "string",
          "name": "",
          "type": "string"
        }
      ],
      "stateMutability": "view",
      "type": "function",
      "constant": true
    },
    {
      "inputs": [],
      "name": "rate",
      "outputs": [
        {
          "internalType": "uint256",
          "name": "",
          "type": "uint256"
        }
      ],
      "stateMutability": "view",
      "type": "function",
      "constant": true
    },
    {
      "inputs": [],
      "name": "token",
      "outputs": [
        {
          "internalType": "contract Token",
          "name": "",
          "type": "address"
        }
      ],
      "stateMutability": "view",
      "type": "function",
      "constant": true
    },
    {
      "inputs": [],
      "name": "buyTokens",
      "outputs": [],
      "stateMutability": "payable",
      "type": "function",
      "payable": true
    },
    {
      "inputs": [
        {
          "internalType": "uint256",
          "name": "_amount",
          "type": "uint256"
        }
      ],
      "name": "sellToken",
      "outputs": [],
      "stateMutability": "nonpayable",
      "type": "function"
    }
  ],
  "bytecode": "0x60806040526040518060400160405280601981526020017f4574685377617020496e7374616e63652045786368616e6765000000000000008152506000908051906020019062000051929190620000d2565b5060646002553480156200006457600080fd5b5060405162000c1238038062000c1283398181016040528101906200008a919062000200565b80600160006101000a81548173ffffffffffffffffffffffffffffffffffffffff021916908373ffffffffffffffffffffffffffffffffffffffff1602179055505062000297565b828054620000e09062000261565b90600052602060002090601f01602090048101928262000104576000855562000150565b82601f106200011f57805160ff191683800117855562000150565b8280016001018555821562000150579182015b828111156200014f57825182559160200191906001019062000132565b5b5090506200015f919062000163565b5090565b5b808211156200017e57600081600090555060010162000164565b5090565b600080fd5b600073ffffffffffffffffffffffffffffffffffffffff82169050919050565b6000620001b48262000187565b9050919050565b6000620001c882620001a7565b9050919050565b620001da81620001bb565b8114620001e657600080fd5b50565b600081519050620001fa81620001cf565b92915050565b60006020828403121562000219576200021862000182565b5b60006200022984828501620001e9565b91505092915050565b7f4e487b7100000000000000000000000000000000000000000000000000000000600052602260045260246000fd5b600060028204905060018216806200027a57607f821691505b6020821081141562000291576200029062000232565b5b50919050565b61096b80620002a76000396000f3fe60806040526004361061004a5760003560e01c806306fdde031461004f5780632397e4d71461007a5780632c4e722e146100a3578063d0febe4c146100ce578063fc0c546a146100d8575b600080fd5b34801561005b57600080fd5b50610064610103565b6040516100719190610515565b60405180910390f35b34801561008657600080fd5b506100a1600480360381019061009c9190610572565b610191565b005b3480156100af57600080fd5b506100b8610291565b6040516100c591906105ae565b60405180910390f35b6100d6610297565b005b3480156100e457600080fd5b506100ed610456565b6040516100fa9190610648565b60405180910390f35b6000805461011090610692565b80601f016020809104026020016040519081016040528092919081815260200182805461013c90610692565b80156101895780601f1061015e57610100808354040283529160200191610189565b820191906000526020600020905b81548152906001019060200180831161016c57829003601f168201915b505050505081565b6000600254826101a19190610722565b9050600160009054906101000a900473ffffffffffffffffffffffffffffffffffffffff1673ffffffffffffffffffffffffffffffffffffffff166323b872dd3330856040518463ffffffff1660e01b815260040161020293929190610774565b6020604051808303816000875af1158015610221573d6000803e3d6000fd5b505050506040513d601f19601f8201168201806040525081019061024591906107e3565b503373ffffffffffffffffffffffffffffffffffffffff166108fc829081150290604051600060405180830381858888f1935050505015801561028c573d6000803e3d6000fd5b505050565b60025481565b6000600254346102a79190610810565b905080600160009054906101000a900473ffffffffffffffffffffffffffffffffffffffff1673ffffffffffffffffffffffffffffffffffffffff166370a08231306040518263ffffffff1660e01b8152600401610305919061086a565b602060405180830381865afa158015610322573d6000803e3d6000fd5b505050506040513d601f19601f82011682018060405250810190610346919061089a565b101561035157600080fd5b600160009054906101000a900473ffffffffffffffffffffffffffffffffffffffff1673ffffffffffffffffffffffffffffffffffffffff1663a9059cbb33836040518363ffffffff1660e01b81526004016103ae9291906108c7565b6020604051808303816000875af11580156103cd573d6000803e3d6000fd5b505050506040513d601f19601f820116820180604052508101906103f191906107e3565b507f8daf503382665d950e449b86172be5222275c90f4ddf69c29fdaa8237a562a6d33600160009054906101000a900473ffffffffffffffffffffffffffffffffffffffff168360025460405161044b94939291906108f0565b60405180910390a150565b600160009054906101000a900473ffffffffffffffffffffffffffffffffffffffff1681565b600081519050919050565b600082825260208201905092915050565b60005b838110156104b657808201518184015260208101905061049b565b838111156104c5576000848401525b50505050565b6000601f19601f8301169050919050565b60006104e78261047c565b6104f18185610487565b9350610501818560208601610498565b61050a816104cb565b840191505092915050565b6000602082019050818103600083015261052f81846104dc565b905092915050565b600080fd5b6000819050919050565b61054f8161053c565b811461055a57600080fd5b50565b60008135905061056c81610546565b92915050565b60006020828403121561058857610587610537565b5b60006105968482850161055d565b91505092915050565b6105a88161053c565b82525050565b60006020820190506105c3600083018461059f565b92915050565b600073ffffffffffffffffffffffffffffffffffffffff82169050919050565b6000819050919050565b600061060e610609610604846105c9565b6105e9565b6105c9565b9050919050565b6000610620826105f3565b9050919050565b600061063282610615565b9050919050565b61064281610627565b82525050565b600060208201905061065d6000830184610639565b92915050565b7f4e487b7100000000000000000000000000000000000000000000000000000000600052602260045260246000fd5b600060028204905060018216806106aa57607f821691505b602082108114156106be576106bd610663565b5b50919050565b7f4e487b7100000000000000000000000000000000000000000000000000000000600052601260045260246000fd5b7f4e487b7100000000000000000000000000000000000000000000000000000000600052601160045260246000fd5b600061072d8261053c565b91506107388361053c565b925082610748576107476106c4565b5b828204905092915050565b600061075e826105c9565b9050919050565b61076e81610753565b82525050565b60006060820190506107896000830186610765565b6107966020830185610765565b6107a3604083018461059f565b949350505050565b60008115159050919050565b6107c0816107ab565b81146107cb57600080fd5b50565b6000815190506107dd816107b7565b92915050565b6000602082840312156107f9576107f8610537565b5b6000610807848285016107ce565b91505092915050565b600061081b8261053c565b91506108268361053c565b9250817fffffffffffffffffffffffffffffffffffffffffffffffffffffffffffffffff048311821515161561085f5761085e6106f3565b5b828202905092915050565b600060208201905061087f6000830184610765565b92915050565b60008151905061089481610546565b92915050565b6000602082840312156108b0576108af610537565b5b60006108be84828501610885565b91505092915050565b60006040820190506108dc6000830185610765565b6108e9602083018461059f565b9392505050565b60006080820190506109056000830187610765565b6109126020830186610765565b61091f604083018561059f565b61092c606083018461059f565b9594505050505056fea2646970667358221220f33bf84c0a51eb2b6c5e3e7059f590e7b0263d26e8c99a5c3a07677401a8ae3d64736f6c634300080b0033",
  "immutableReferences": {},
  "source": " // SPDX license identifier\n pragma solidity >=0.4.21;\n\nimport \"./Token.sol\";\n\n contract EthSwap{\n    string public name = \"EthSwap Instance Exchange\";\n    Token public token;\n    uint public rate = 100;\n\n    event TokenPurchased(\n        address account,\n        address token,\n        uint amount,\n        uint rate\n    );\n\n    // Declare constructor to pass the token contract address when deployed\n    constructor(Token _token) public{\n         token = _token;\n    }\n\n    // Buy token function\n    function buyTokens() public payable{\n         // Calculate number of tokens to buy\n        uint tokenAmount = msg.value * rate;\n\n        // Check if eth swap has enough token for process this transfer\n        require(token.balanceOf(address(this)) >= tokenAmount);       \n\n        // send tokens to user\n        token.transfer(msg.sender, tokenAmount);\n\n        // Emit\n        emit TokenPurchased(msg.sender, address(token), tokenAmount, rate);\n    }\n\n    function sellToken(uint _amount) public{\n        // Perforom sale to redeem eth\n        uint etherAmount = _amount / rate;\n        token.transferFrom(msg.sender, address(this), _amount);\n\n        payable(msg.sender).transfer(etherAmount);\n    }\n }  ",
  "sourcePath": "/Users/mac/Documents/LEARNING/DAPP etherum network/eth_swap/src/contracts/EthSwap.sol",
  "compiler": {
    "name": "solc",
    "version": "0.8.11+commit.d7f03943.Emscripten.clang"
  },
  "schemaVersion": "3.4.3",
  "updatedAt": "2022-02-01T19:38:44.690Z",
  "networkType": "ethereum",
  "devdoc": {
    "kind": "dev",
    "methods": {},
    "version": 1
  },
  "userdoc": {
    "kind": "user",
    "methods": {},
    "version": 1
  }
}